{
    "contractName": "P2PEnergyTrading",
    "abi": [
        {
            "anonymous": false,
            "inputs": [
                {
                    "indexed": false,
                    "internalType": "uint256",
                    "name": "offerId",
                    "type": "uint256"
                },
                {
                    "indexed": true,
                    "internalType": "address",
                    "name": "seller",
                    "type": "address"
                },
                {
                    "indexed": false,
                    "internalType": "uint256",
                    "name": "energyAmount",
                    "type": "uint256"
                },
                {
                    "indexed": false,
                    "internalType": "uint256",
                    "name": "price",
                    "type": "uint256"
                }
            ],
            "name": "OfferCreated",
            "type": "event"
        },
        {
            "anonymous": false,
            "inputs": [
                {
                    "indexed": false,
                    "internalType": "uint256",
                    "name": "offerId",
                    "type": "uint256"
                },
                {
                    "indexed": true,
                    "internalType": "address",
                    "name": "buyer",
                    "type": "address"
                },
                {
                    "indexed": false,
                    "internalType": "uint256",
                    "name": "energyAmount",
                    "type": "uint256"
                },
                {
                    "indexed": false,
                    "internalType": "uint256",
                    "name": "price",
                    "type": "uint256"
                }
            ],
            "name": "OfferFulfilled",
            "type": "event"
        },
        {
            "inputs": [
                {
                    "internalType": "uint256",
                    "name": "",
                    "type": "uint256"
                }
            ],
            "name": "offers",
            "outputs": [
                {
                    "internalType": "address payable",
                    "name": "seller",
                    "type": "address"
                },
                {
                    "internalType": "uint256",
                    "name": "energyAmount",
                    "type": "uint256"
                },
                {
                    "internalType": "uint256",
                    "name": "price",
                    "type": "uint256"
                },
                {
                    "internalType": "bool",
                    "name": "fulfilled",
                    "type": "bool"
                }
            ],
            "stateMutability": "view",
            "type": "function",
            "constant": true
        },
        {
            "inputs": [
                {
                    "internalType": "uint256",
                    "name": "_energyAmount",
                    "type": "uint256"
                },
                {
                    "internalType": "uint256",
                    "name": "_price",
                    "type": "uint256"
                }
            ],
            "name": "createOffer",
            "outputs": [],
            "stateMutability": "nonpayable",
            "type": "function"
        },
        {
            "inputs": [
                {
                    "internalType": "uint256",
                    "name": "_offerId",
                    "type": "uint256"
                }
            ],
            "name": "fulfillOffer",
            "outputs": [],
            "stateMutability": "payable",
            "type": "function",
            "payable": true
        },
        {
            "inputs": [],
            "name": "getOffers",
            "outputs": [
                {
                    "components": [
                        {
                            "internalType": "address payable",
                            "name": "seller",
                            "type": "address"
                        },
                        {
                            "internalType": "uint256",
                            "name": "energyAmount",
                            "type": "uint256"
                        },
                        {
                            "internalType": "uint256",
                            "name": "price",
                            "type": "uint256"
                        },
                        {
                            "internalType": "bool",
                            "name": "fulfilled",
                            "type": "bool"
                        }
                    ],
                    "internalType": "struct P2PEnergyTrading.Offer[]",
                    "name": "",
                    "type": "tuple[]"
                }
            ],
            "stateMutability": "view",
            "type": "function",
            "constant": true
        }
    ],
    "bytecode": "0x608060405234801561001057600080fd5b506109c4806100206000396000f3fe60806040526004361061003f5760003560e01c80631afed875146100445780633ee992ee1461006d5780638a72ea6a14610098578063c78545d9146100d8575b600080fd5b34801561005057600080fd5b5061006b6004803603810190610066919061056c565b6100f4565b005b34801561007957600080fd5b5061008261023d565b60405161008f919061071b565b60405180910390f35b3480156100a457600080fd5b506100bf60048036038101906100ba919061073d565b610321565b6040516100cf9493929190610797565b60405180910390f35b6100f260048036038101906100ed919061073d565b61038e565b005b600060405180608001604052803373ffffffffffffffffffffffffffffffffffffffff16815260200184815260200183815260200160001515815250908060018154018082558091505060019003906000526020600020906004020160009091909190915060008201518160000160006101000a81548173ffffffffffffffffffffffffffffffffffffffff021916908373ffffffffffffffffffffffffffffffffffffffff160217905550602082015181600101556040820151816002015560608201518160030160006101000a81548160ff02191690831515021790555050503373ffffffffffffffffffffffffffffffffffffffff167fbf26a47e2418fff23bee5882ae59627d33e81fa75ab2b1fa08de6cf5f2fa37616001600080549050610220919061080b565b84846040516102319392919061083f565b60405180910390a25050565b60606000805480602002602001604051908101604052809291908181526020016000905b8282101561031857838290600052602060002090600402016040518060800160405290816000820160009054906101000a900473ffffffffffffffffffffffffffffffffffffffff1673ffffffffffffffffffffffffffffffffffffffff1673ffffffffffffffffffffffffffffffffffffffff16815260200160018201548152602001600282015481526020016003820160009054906101000a900460ff16151515158152505081526020019060010190610261565b50505050905090565b6000818154811061033157600080fd5b90600052602060002090600402016000915090508060000160009054906101000a900473ffffffffffffffffffffffffffffffffffffffff16908060010154908060020154908060030160009054906101000a900460ff16905084565b60008082815481106103a3576103a2610876565b5b906000526020600020906004020190508060030160009054906101000a900460ff1615610405576040517f08c379a00000000000000000000000000000000000000000000000000000000081526004016103fc90610902565b60405180910390fd5b8060020154341461044b576040517f08c379a00000000000000000000000000000000000000000000000000000000081526004016104429061096e565b60405180910390fd5b8060000160009054906101000a900473ffffffffffffffffffffffffffffffffffffffff1673ffffffffffffffffffffffffffffffffffffffff166108fc349081150290604051600060405180830381858888f193505050501580156104b5573d6000803e3d6000fd5b5060018160030160006101000a81548160ff0219169083151502179055503373ffffffffffffffffffffffffffffffffffffffff167f2672e10588a5cf345a572935c844d599abe24ee7333299006ce0b53232bc695983836001015484600201546040516105259392919061083f565b60405180910390a25050565b600080fd5b6000819050919050565b61054981610536565b811461055457600080fd5b50565b60008135905061056681610540565b92915050565b6000806040838503121561058357610582610531565b5b600061059185828601610557565b92505060206105a285828601610557565b9150509250929050565b600081519050919050565b600082825260208201905092915050565b6000819050602082019050919050565b600073ffffffffffffffffffffffffffffffffffffffff82169050919050565b6000610603826105d8565b9050919050565b610613816105f8565b82525050565b61062281610536565b82525050565b60008115159050919050565b61063d81610628565b82525050565b608082016000820151610659600085018261060a565b50602082015161066c6020850182610619565b50604082015161067f6040850182610619565b5060608201516106926060850182610634565b50505050565b60006106a48383610643565b60808301905092915050565b6000602082019050919050565b60006106c8826105ac565b6106d281856105b7565b93506106dd836105c8565b8060005b8381101561070e5781516106f58882610698565b9750610700836106b0565b9250506001810190506106e1565b5085935050505092915050565b6000602082019050818103600083015261073581846106bd565b905092915050565b60006020828403121561075357610752610531565b5b600061076184828501610557565b91505092915050565b610773816105f8565b82525050565b61078281610536565b82525050565b61079181610628565b82525050565b60006080820190506107ac600083018761076a565b6107b96020830186610779565b6107c66040830185610779565b6107d36060830184610788565b95945050505050565b7f4e487b7100000000000000000000000000000000000000000000000000000000600052601160045260246000fd5b600061081682610536565b915061082183610536565b9250828203905081811115610839576108386107dc565b5b92915050565b60006060820190506108546000830186610779565b6108616020830185610779565b61086e6040830184610779565b949350505050565b7f4e487b7100000000000000000000000000000000000000000000000000000000600052603260045260246000fd5b600082825260208201905092915050565b7f4f6666657220616c72656164792066756c66696c6c6564000000000000000000600082015250565b60006108ec6017836108a5565b91506108f7826108b6565b602082019050919050565b6000602082019050818103600083015261091b816108df565b9050919050565b7f496e636f7272656374204554482073656e740000000000000000000000000000600082015250565b60006109586012836108a5565b915061096382610922565b602082019050919050565b600060208201905081810360008301526109878161094b565b905091905056fea264697066735822122034e804d1db1845dc045dced0f05993822999fb3a9f2f5596c5696e963ab16e4764736f6c63430008130033",
    "immutableReferences": {},
    "source": "// SPDX-License-Identifier: MIT\npragma solidity ^0.8.19;\n\ncontract P2PEnergyTrading {\n\n    struct Offer {\n        address payable seller;  // Change to address payable\n        uint256 energyAmount;    // Energy in kWh\n        uint256 price;           // Price in ETH\n        bool fulfilled;\n    }\n\n    Offer[] public offers;\n\n    event OfferCreated(uint256 offerId, address indexed seller, uint256 energyAmount, uint256 price);\n    event OfferFulfilled(uint256 offerId, address indexed buyer, uint256 energyAmount, uint256 price);\n\n    // Create an energy offer\n    function createOffer(uint256 _energyAmount, uint256 _price) public {\n        offers.push(Offer({\n            seller: payable(msg.sender),  // Set msg.sender as payable\n            energyAmount: _energyAmount,\n            price: _price,\n            fulfilled: false\n        }));\n\n        emit OfferCreated(offers.length - 1, msg.sender, _energyAmount, _price);\n    }\n\n    // Fulfill an energy offer\n    function fulfillOffer(uint256 _offerId) public payable {\n        Offer storage offer = offers[_offerId];\n        require(!offer.fulfilled, \"Offer already fulfilled\");\n        require(msg.value == offer.price, \"Incorrect ETH sent\");\n\n        offer.seller.transfer(msg.value);  // Transfer ETH to the seller\n        offer.fulfilled = true;\n\n        emit OfferFulfilled(_offerId, msg.sender, offer.energyAmount, offer.price);\n    }\n\n    // View all offers\n    function getOffers() public view returns (Offer[] memory) {\n        return offers;\n    }\n}\n",
    "sourcePath": "C:\\Users\\boyap\\OneDrive\\Desktop\\mini-project\\contracts\\trading.sol",
    "compiler": {
        "name": "solc",
        "version": "0.8.19+commit.7dd6d404.Emscripten.clang"
    },
    "schemaVersion": "3.4.16",
    "updatedAt": "2024-09-23T04:50:16.571Z",
    "networkType": "ethereum",
    "devdoc": {
        "kind": "dev",
        "methods": {},
        "version": 1
    },
    "userdoc": {
        "kind": "user",
        "methods": {},
        "version": 1
    }
}